:03000000020411E6
:0C041100787FE4F6D8FD75811E0201E63C
:08041D00E4F5E7F5E5F5E62240
:10031A00AD07AC06C2AF75E78175E5018CE3EDF573
:10032A00E475E64675E6B90012041DD2AFAFE222C3
:10033A00AB07AA06C2AF75E78175E5028AE3EBF55A
:10034A00E48DE275E64675E6B90012041DD2AF22C5
:10035A00AD07AC06C2AF75E78175E5038CE3EDF531
:0E036A00E475E64675E6B90012041DD2AF2216
:1001E6001203787F007E2012031AEFC4540F2430C6
:1001F600F508EF540F2430F5097F007E2012035ACC
:100206007D997F007E2012033A0000000000007FE7
:10021600007E2012031AEFC4540F2430F50AEF545F
:100226000F2430F50B7B007A007908751104E4FD84
:06023600FF1202F880FE39
:1003F0002000A1A0A1A0A1A0A1A0A1A0A1A0A1A016
:02040000A1A0B9
:1003DE00C290D291D295E5805480FFC29570F5C23D
:0103EE009579
:0103EF0022EB
:09039600FF12039FE5184480FFEB
:10039F00AE071203DEC290C291D2958E80C2952213
:0603C80014F9120289FF86
:1003CE00AE071203DED290C291D2958E80C29522D4
:100378007F3012039F7F0C12039F7F0112039F7B24
:0E038800FF7A0379F0751101E4FDFF0202F81F
:1002F8008B0E8A0F89101202CDAB0E0510E510AADD
:100308000F7002050F1203C81511E511D3940050A0
:02031800E822D9
:0A023C008F128D138B148A1589169A
:10024600AF171517EFD394004038AD13AF12120253
:10025600CD0512E512D394074005E4F5120513AB5C
:1002660014AA15A9161202A2FDACF0ECFF1203CED9
:10027600AF051203CE74022516F516E43515F515ED
:0202860080BE38
:010288002253
:0202CD00AE077A
:1002CF00E4FFED146010146013146016240370160D
:1002DF00EE2480FF8010EE2490FF800AEE2488FF2A
:0902EF008004EE2498FF02039F35
:050425007F0F02039FA0
:05042A007F0C02039F9E
:1003AF007F3012039F7F0112039F7BFF7A0379F047
:0903BF00751101E4FDFF0202F8D2
:060095008B1C8A1D891E70
:10009B007F3412039F7F3412039FE4FCEC4480FFF8
:1000AB0012039F7F8012039FE4FDAB1C051EE51E10
:1000BB00AA1D7002051D1203C8AB1C051EE51EAA66
:1000CB001D7002051D1203C80DBD08DE0CBC20CC33
:1000DB00E4FCEC4480FF12039F7F8812039FE4FD36
:1000EB00AB1C051EE51EAA1D7002051D1203C8AB35
:1000FB001C051EE51EAA1D7002051D1203C80DBDB1
:10010B0008DE0CBC20CC7F3612039F7F3002039F8E
:080003008F188B198A1A891B62
:10000B007F3412039F7F3412039FEDC39402503051
:10001B00E4FCEDC454F044804C120396AB19051B61
:10002B00E51BAA1A7002051A1203C8AB19051BE5CA
:10003B001BAA1A7002051A1203C80CBC10D4803705
:10004B00E4FCEDC454F044804CFF12039FE51844CC
:10005B0088FF12039FAB19051BE51BAA1A7002053B
:10006B001A1203C8AB19051BE51BAA1A7002051A55
:10007B001203C80CBC10CBEDC454F0448012039691
:0A008B007F3612039F7F3002039FAF
:10018E007F3412039F7F3412039FE4FCEC4480FF04
:10019E0012039F7F8012039FE4FDE4FF1203CEE45F
:1001AE00FF1203CE0DBD08F20CBC20E0E4FCEC44C3
:1001BE0080FF12039F7F8812039FE4FDE4FF12036A
:1001CE00CEE4FF1203CE0DBD08F20CBC20E07F364C
:0801DE0012039F7F3002039F12
:02011B00AB0730
:10011D007F3412039F7F3412039FEDC3940250244A
:10012D00E4FCEDC454F044804CFF12039FEB44807B
:10013D00FF12039FE4FF1203CEE4FF1203CE0CBCAB
:10014D0010E08022E4FCEDC454F044804CFF120317
:10015D009FEB4488FF12039FE4FF1203CEE4FF12CE
:10016D0003CE0CBC10E0EDC454F04480FF12039F8D
:10017D00EB4480FF12039F7F3612039F7F300203F3
:01018D009FD2
:0F0402007BFF7A0379F2C374089FF51702023C5F
:10028900BB010689828A83E0225002E722BBFE0273
:09029900E32289828A83E49322A6
:1002A200BB010A89828A83E0F5F0A3E02250068727
:1002B200F009E71922BBFE07E3F5F009E3192289E9
:0B02C200828A83E493F5F0740193221C
:00000001FF
